{
  "_format": "hh3-artifact-1",
  "contractName": "TransactionLogger",
  "sourceName": "contracts/TransactionLogger.sol",
  "abi": [
    {
      "anonymous": false,
      "inputs": [
        {
          "indexed": false,
          "internalType": "uint256",
          "name": "userId",
          "type": "uint256"
        },
        {
          "indexed": false,
          "internalType": "uint256",
          "name": "campaignId",
          "type": "uint256"
        },
        {
          "indexed": false,
          "internalType": "uint256",
          "name": "transactionId",
          "type": "uint256"
        },
        {
          "indexed": false,
          "internalType": "uint256",
          "name": "amount",
          "type": "uint256"
        },
        {
          "indexed": false,
          "internalType": "string",
          "name": "status",
          "type": "string"
        },
        {
          "indexed": false,
          "internalType": "string",
          "name": "note",
          "type": "string"
        },
        {
          "indexed": false,
          "internalType": "uint256",
          "name": "timestamp",
          "type": "uint256"
        }
      ],
      "name": "TransactionCommitted",
      "type": "event"
    },
    {
      "inputs": [
        {
          "internalType": "uint256",
          "name": "userId",
          "type": "uint256"
        },
        {
          "internalType": "uint256",
          "name": "campaignId",
          "type": "uint256"
        },
        {
          "internalType": "uint256",
          "name": "transactionId",
          "type": "uint256"
        },
        {
          "internalType": "uint256",
          "name": "amount",
          "type": "uint256"
        },
        {
          "internalType": "string",
          "name": "status",
          "type": "string"
        },
        {
          "internalType": "string",
          "name": "note",
          "type": "string"
        }
      ],
      "name": "commitTransaction",
      "outputs": [],
      "stateMutability": "nonpayable",
      "type": "function"
    },
    {
      "inputs": [],
      "name": "getAllTransactions",
      "outputs": [
        {
          "components": [
            {
              "internalType": "uint256",
              "name": "userId",
              "type": "uint256"
            },
            {
              "internalType": "uint256",
              "name": "campaignId",
              "type": "uint256"
            },
            {
              "internalType": "uint256",
              "name": "transactionId",
              "type": "uint256"
            },
            {
              "internalType": "uint256",
              "name": "amount",
              "type": "uint256"
            },
            {
              "internalType": "string",
              "name": "status",
              "type": "string"
            },
            {
              "internalType": "string",
              "name": "note",
              "type": "string"
            },
            {
              "internalType": "uint256",
              "name": "timestamp",
              "type": "uint256"
            }
          ],
          "internalType": "struct TransactionLogger.Transaction[]",
          "name": "",
          "type": "tuple[]"
        }
      ],
      "stateMutability": "view",
      "type": "function"
    },
    {
      "inputs": [],
      "name": "getTransactionCount",
      "outputs": [
        {
          "internalType": "uint256",
          "name": "",
          "type": "uint256"
        }
      ],
      "stateMutability": "view",
      "type": "function"
    },
    {
      "inputs": [
        {
          "internalType": "uint256",
          "name": "",
          "type": "uint256"
        }
      ],
      "name": "transactions",
      "outputs": [
        {
          "internalType": "uint256",
          "name": "userId",
          "type": "uint256"
        },
        {
          "internalType": "uint256",
          "name": "campaignId",
          "type": "uint256"
        },
        {
          "internalType": "uint256",
          "name": "transactionId",
          "type": "uint256"
        },
        {
          "internalType": "uint256",
          "name": "amount",
          "type": "uint256"
        },
        {
          "internalType": "string",
          "name": "status",
          "type": "string"
        },
        {
          "internalType": "string",
          "name": "note",
          "type": "string"
        },
        {
          "internalType": "uint256",
          "name": "timestamp",
          "type": "uint256"
        }
      ],
      "stateMutability": "view",
      "type": "function"
    }
  ],
  "bytecode": "0x6080604052348015600e575f5ffd5b5061092c8061001c5f395ff3fe608060405234801561000f575f5ffd5b506004361061004a575f3560e01c806327506f531461004e5780632e7700f01461006c5780639ace38c21461007c578063d23297d9146100a2575b5f5ffd5b6100566100b7565b604051610063919061056b565b60405180910390f35b5f54604051908152602001610063565b61008f61008a366004610628565b610263565b604051610063979695949392919061063f565b6100b56100b036600461072f565b6103bb565b005b60605f805480602002602001604051908101604052809291908181526020015f905b8282101561025a578382905f5260205f2090600702016040518060e00160405290815f8201548152602001600182015481526020016002820154815260200160038201548152602001600482018054610131906107b7565b80601f016020809104026020016040519081016040528092919081815260200182805461015d906107b7565b80156101a85780601f1061017f576101008083540402835291602001916101a8565b820191905f5260205f20905b81548152906001019060200180831161018b57829003601f168201915b505050505081526020016005820180546101c1906107b7565b80601f01602080910402602001604051908101604052809291908181526020018280546101ed906107b7565b80156102385780601f1061020f57610100808354040283529160200191610238565b820191905f5260205f20905b81548152906001019060200180831161021b57829003601f168201915b50505050508152602001600682015481525050815260200190600101906100d9565b50505050905090565b5f8181548110610271575f80fd5b905f5260205f2090600702015f91509050805f0154908060010154908060020154908060030154908060040180546102a8906107b7565b80601f01602080910402602001604051908101604052809291908181526020018280546102d4906107b7565b801561031f5780601f106102f65761010080835404028352916020019161031f565b820191905f5260205f20905b81548152906001019060200180831161030257829003601f168201915b505050505090806005018054610334906107b7565b80601f0160208091040260200160405190810160405280929190818152602001828054610360906107b7565b80156103ab5780601f10610382576101008083540402835291602001916103ab565b820191905f5260205f20905b81548152906001019060200180831161038e57829003601f168201915b5050505050908060060154905087565b6040805160e08101825287815260208101878152918101868152606082018681526080830186815260a084018690524260c08501525f8054600181018255908052845160079091027f290decd9548b62a8d60345a988386fc84ba6bc95484008f6362f93160ef3e563810191825595517f290decd9548b62a8d60345a988386fc84ba6bc95484008f6362f93160ef3e56487015592517f290decd9548b62a8d60345a988386fc84ba6bc95484008f6362f93160ef3e56586015590517f290decd9548b62a8d60345a988386fc84ba6bc95484008f6362f93160ef3e56685015551919283927f290decd9548b62a8d60345a988386fc84ba6bc95484008f6362f93160ef3e567909101906104cf908261083b565b5060a082015160058201906104e4908261083b565b5060c0820151816006015550507f7cd362d0deaa16ae891df6d19168d5f23d1c995e88a5bd97c5e1e5267e9392e58787878787874260405161052c979695949392919061063f565b60405180910390a150505050505050565b5f81518084528060208401602086015e5f602082860101526020601f19601f83011685010191505092915050565b5f602082016020835280845180835260408501915060408160051b8601019250602086015f5b8281101561061c57603f19878603018452815180518652602081015160208701526040810151604087015260608101516060870152608081015160e060808801526105df60e088018261053d565b905060a082015187820360a08901526105f8828261053d565b60c09384015198909301979097525094506020938401939190910190600101610591565b50929695505050505050565b5f60208284031215610638575f5ffd5b5035919050565b87815286602082015285604082015284606082015260e060808201525f61066960e083018661053d565b82810360a084015261067b818661053d565b9150508260c083015298975050505050505050565b634e487b7160e01b5f52604160045260245ffd5b5f82601f8301126106b3575f5ffd5b813567ffffffffffffffff8111156106cd576106cd610690565b604051601f8201601f19908116603f0116810167ffffffffffffffff811182821017156106fc576106fc610690565b604052818152838201602001851015610713575f5ffd5b816020850160208301375f918101602001919091529392505050565b5f5f5f5f5f5f60c08789031215610744575f5ffd5b86359550602087013594506040870135935060608701359250608087013567ffffffffffffffff811115610776575f5ffd5b61078289828a016106a4565b92505060a087013567ffffffffffffffff81111561079e575f5ffd5b6107aa89828a016106a4565b9150509295509295509295565b600181811c908216806107cb57607f821691505b6020821081036107e957634e487b7160e01b5f52602260045260245ffd5b50919050565b601f82111561083657805f5260205f20601f840160051c810160208510156108145750805b601f840160051c820191505b81811015610833575f8155600101610820565b50505b505050565b815167ffffffffffffffff81111561085557610855610690565b6108698161086384546107b7565b846107ef565b6020601f82116001811461089b575f83156108845750848201515b5f19600385901b1c1916600184901b178455610833565b5f84815260208120601f198516915b828110156108ca57878501518255602094850194600190920191016108aa565b50848210156108e757868401515f19600387901b60f8161c191681555b50505050600190811b0190555056fea26469706673582212200036e28884dc5487b0a493a76718190f2255a6bfe8b9c09bcfa1aa77780ae84964736f6c634300081c0033",
  "linkReferences": {},
  "deployedLinkReferences": {},
  "immutableReferences": {},
  "inputSourceName": "project/contracts/TransactionLogger.sol",
  "buildInfoId": "solc-0_8_28-e9f867aee8f91fe3d58674772822df1b6176739b"
}